{
  "address": "0xB32e77dc18A4a6afDccBD58517f869A905E58Ca8",
  "abi": [
    {
      "inputs": [
        {
          "internalType": "address",
          "name": "vrfCoordinatorV2",
          "type": "address"
        },
        {
          "internalType": "uint256",
          "name": "entranceFee",
          "type": "uint256"
        },
        {
          "internalType": "bytes32",
          "name": "gasLane",
          "type": "bytes32"
        },
        {
          "internalType": "uint64",
          "name": "subscriptionId",
          "type": "uint64"
        },
        {
          "internalType": "uint32",
          "name": "callbackGasLimit",
          "type": "uint32"
        },
        {
          "internalType": "uint256",
          "name": "interval",
          "type": "uint256"
        }
      ],
      "stateMutability": "nonpayable",
      "type": "constructor"
    },
    {
      "inputs": [
        {
          "internalType": "address",
          "name": "have",
          "type": "address"
        },
        {
          "internalType": "address",
          "name": "want",
          "type": "address"
        }
      ],
      "name": "OnlyCoordinatorCanFulfill",
      "type": "error"
    },
    {
      "inputs": [],
      "name": "Raffle_NotOpen",
      "type": "error"
    },
    {
      "inputs": [],
      "name": "Raffle__NotEnoughETHEntered",
      "type": "error"
    },
    {
      "inputs": [],
      "name": "Raffle__TransferFailed",
      "type": "error"
    },
    {
      "inputs": [
        {
          "internalType": "uint256",
          "name": "currentBalance",
          "type": "uint256"
        },
        {
          "internalType": "uint256",
          "name": "numPlayers",
          "type": "uint256"
        },
        {
          "internalType": "uint256",
          "name": "raffleState",
          "type": "uint256"
        }
      ],
      "name": "Raffle__UpkeepNotNeeded",
      "type": "error"
    },
    {
      "anonymous": false,
      "inputs": [
        {
          "indexed": true,
          "internalType": "address",
          "name": "playerAddress",
          "type": "address"
        }
      ],
      "name": "RaffleEnter",
      "type": "event"
    },
    {
      "anonymous": false,
      "inputs": [
        {
          "indexed": true,
          "internalType": "uint256",
          "name": "requestId",
          "type": "uint256"
        }
      ],
      "name": "RequestedRaffleWinner",
      "type": "event"
    },
    {
      "anonymous": false,
      "inputs": [
        {
          "indexed": true,
          "internalType": "address",
          "name": "recentWinner",
          "type": "address"
        }
      ],
      "name": "WinnerPicked",
      "type": "event"
    },
    {
      "inputs": [
        {
          "internalType": "bytes",
          "name": "",
          "type": "bytes"
        }
      ],
      "name": "checkUpkeep",
      "outputs": [
        {
          "internalType": "bool",
          "name": "upkeepNeeded",
          "type": "bool"
        },
        {
          "internalType": "bytes",
          "name": "",
          "type": "bytes"
        }
      ],
      "stateMutability": "view",
      "type": "function"
    },
    {
      "inputs": [],
      "name": "enterRaffle",
      "outputs": [],
      "stateMutability": "payable",
      "type": "function"
    },
    {
      "inputs": [],
      "name": "getEntranceFee",
      "outputs": [
        {
          "internalType": "uint256",
          "name": "",
          "type": "uint256"
        }
      ],
      "stateMutability": "view",
      "type": "function"
    },
    {
      "inputs": [],
      "name": "getInterval",
      "outputs": [
        {
          "internalType": "uint256",
          "name": "",
          "type": "uint256"
        }
      ],
      "stateMutability": "view",
      "type": "function"
    },
    {
      "inputs": [],
      "name": "getLatestTimeStamp",
      "outputs": [
        {
          "internalType": "uint256",
          "name": "",
          "type": "uint256"
        }
      ],
      "stateMutability": "view",
      "type": "function"
    },
    {
      "inputs": [],
      "name": "getNumWords",
      "outputs": [
        {
          "internalType": "uint256",
          "name": "",
          "type": "uint256"
        }
      ],
      "stateMutability": "pure",
      "type": "function"
    },
    {
      "inputs": [],
      "name": "getNumberOfPlayers",
      "outputs": [
        {
          "internalType": "uint256",
          "name": "",
          "type": "uint256"
        }
      ],
      "stateMutability": "view",
      "type": "function"
    },
    {
      "inputs": [
        {
          "internalType": "uint256",
          "name": "index",
          "type": "uint256"
        }
      ],
      "name": "getPlayer",
      "outputs": [
        {
          "internalType": "address",
          "name": "",
          "type": "address"
        }
      ],
      "stateMutability": "view",
      "type": "function"
    },
    {
      "inputs": [],
      "name": "getRaffleState",
      "outputs": [
        {
          "internalType": "enum Raffle.RaffleState",
          "name": "",
          "type": "uint8"
        }
      ],
      "stateMutability": "view",
      "type": "function"
    },
    {
      "inputs": [],
      "name": "getRecentWinner",
      "outputs": [
        {
          "internalType": "address",
          "name": "",
          "type": "address"
        }
      ],
      "stateMutability": "view",
      "type": "function"
    },
    {
      "inputs": [],
      "name": "getRequestConfirmations",
      "outputs": [
        {
          "internalType": "uint256",
          "name": "",
          "type": "uint256"
        }
      ],
      "stateMutability": "pure",
      "type": "function"
    },
    {
      "inputs": [
        {
          "internalType": "bytes",
          "name": "",
          "type": "bytes"
        }
      ],
      "name": "performUpkeep",
      "outputs": [],
      "stateMutability": "nonpayable",
      "type": "function"
    },
    {
      "inputs": [
        {
          "internalType": "uint256",
          "name": "requestId",
          "type": "uint256"
        },
        {
          "internalType": "uint256[]",
          "name": "randomWords",
          "type": "uint256[]"
        }
      ],
      "name": "rawFulfillRandomWords",
      "outputs": [],
      "stateMutability": "nonpayable",
      "type": "function"
    }
  ],
  "transactionHash": "0x7f8b762784dd27e3d0e014107a78e5586d22693ccb66d1a985a78a0e14f19179",
  "args": [
    "0x6168499c0cFfCaCD319c818142124B7A15E857ab",
    "10000000000000000",
    "0xd89b2bf150e3b9e13446986e571fb9cab24b13cea0a43ea20a6049a85cc807cc",
    "0",
    "500000",
    30
  ],
  "numDeployments": 2,
  "solcInputHash": "0f2bb3d8130d3f147e135c9ce31d4327",
  "bytecode": "0x6101606040523480156200001257600080fd5b5060405162001921380380620019218339818101604052810190620000389190620001ad565b858073ffffffffffffffffffffffffffffffffffffffff1660808173ffffffffffffffffffffffffffffffffffffffff1660601b81525050508460a081815250508573ffffffffffffffffffffffffffffffffffffffff1660e08173ffffffffffffffffffffffffffffffffffffffff1660601b815250508361010081815250508267ffffffffffffffff166101208167ffffffffffffffff1660c01b815250508163ffffffff166101408163ffffffff1660e01b81525050426002819055506000600160146101000a81548160ff02191690836001811115620001215762000120620002b5565b5b02179055508060c081815250505050505050506200036b565b6000815190506200014b81620002e9565b92915050565b600081519050620001628162000303565b92915050565b60008151905062000179816200031d565b92915050565b600081519050620001908162000337565b92915050565b600081519050620001a78162000351565b92915050565b60008060008060008060c08789031215620001cd57620001cc620002e4565b5b6000620001dd89828a016200013a565b9650506020620001f089828a0162000168565b95505060406200020389828a0162000151565b94505060606200021689828a0162000196565b93505060806200022989828a016200017f565b92505060a06200023c89828a0162000168565b9150509295509295509295565b6000620002568262000267565b9050919050565b6000819050919050565b600073ffffffffffffffffffffffffffffffffffffffff82169050919050565b6000819050919050565b600063ffffffff82169050919050565b600067ffffffffffffffff82169050919050565b7f4e487b7100000000000000000000000000000000000000000000000000000000600052602160045260246000fd5b600080fd5b620002f48162000249565b81146200030057600080fd5b50565b6200030e816200025d565b81146200031a57600080fd5b50565b620003288162000287565b81146200033457600080fd5b50565b620003428162000291565b81146200034e57600080fd5b50565b6200035c81620002a1565b81146200036857600080fd5b50565b60805160601c60a05160c05160e05160601c610100516101205160c01c6101405160e01c61153a620003e76000396000610719015260006106f6015260006106d50152600061069901526000818161087501526108d90152600081816102fa0152610464015260008181610337015261038b015261153a6000f3fe6080604052600436106100c25760003560e01c8063473f1ddc1161007f5780636e04ff0d116100595780636e04ff0d1461022557806391ad27b414610263578063e55ae4e81461028e578063fd6673f5146102cb576100c2565b8063473f1ddc146101a457806353a2c19a146101cf5780635f1b0fd8146101fa576100c2565b806309bc33a7146100c7578063115cbaf5146100f25780631fe543e31461011d5780632cfcc53914610146578063320229eb146101505780634585e33b1461017b575b600080fd5b3480156100d357600080fd5b506100dc6102f6565b6040516100e99190611138565b60405180910390f35b3480156100fe57600080fd5b5061010761031e565b60405161011491906110fd565b60405180910390f35b34801561012957600080fd5b50610144600480360381019061013f9190610ece565b610335565b005b61014e6103f5565b005b34801561015c57600080fd5b50610165610564565b6040516101729190611138565b60405180910390f35b34801561018757600080fd5b506101a2600480360381019061019d9190610e27565b61056e565b005b3480156101b057600080fd5b506101b96107e1565b6040516101c69190611036565b60405180910390f35b3480156101db57600080fd5b506101e461080b565b6040516101f19190611138565b60405180910390f35b34801561020657600080fd5b5061020f61081a565b60405161021c9190611138565b60405180910390f35b34801561023157600080fd5b5061024c60048036038101906102479190610e27565b610827565b60405161025a92919061107a565b60405180910390f35b34801561026f57600080fd5b506102786108d5565b6040516102859190611138565b60405180910390f35b34801561029a57600080fd5b506102b560048036038101906102b09190610e74565b6108fd565b6040516102c29190611036565b60405180910390f35b3480156102d757600080fd5b506102e0610944565b6040516102ed9190611138565b60405180910390f35b60007f0000000000000000000000000000000000000000000000000000000000000000905090565b6000600160149054906101000a900460ff16905090565b7f000000000000000000000000000000000000000000000000000000000000000073ffffffffffffffffffffffffffffffffffffffff163373ffffffffffffffffffffffffffffffffffffffff16146103e757337f00000000000000000000000000000000000000000000000000000000000000006040517f1cf993f40000000000000000000000000000000000000000000000000000000081526004016103de929190611051565b60405180910390fd5b6103f18282610950565b5050565b60018081111561040857610407611403565b5b600160149054906101000a900460ff16600181111561042a57610429611403565b5b1415610462576040517fd6e19a8d00000000000000000000000000000000000000000000000000000000815260040160405180910390fd5b7f00000000000000000000000000000000000000000000000000000000000000003410156104bc576040517fbd4e069500000000000000000000000000000000000000000000000000000000815260040160405180910390fd5b6000339080600181540180825580915050600190039060005260206000200160009091909190916101000a81548173ffffffffffffffffffffffffffffffffffffffff021916908373ffffffffffffffffffffffffffffffffffffffff1602179055503373ffffffffffffffffffffffffffffffffffffffff167f0805e1d667bddb8a95f0f09880cf94f403fb596ce79928d9f29b74203ba284d460405160405180910390a2565b6000600254905090565b60003073ffffffffffffffffffffffffffffffffffffffff16636e04ff0d6040518163ffffffff1660e01b81526004016105a790611118565b60006040518083038186803b1580156105bf57600080fd5b505afa1580156105d3573d6000803e3d6000fd5b505050506040513d6000823e3d601f19601f820116820180604052508101906105fc9190610dcb565b5090508061066b5747600080549050600160149054906101000a900460ff16600181111561062d5761062c611403565b5b6040517f584327aa00000000000000000000000000000000000000000000000000000000815260040161066293929190611153565b60405180910390fd5b60018060146101000a81548160ff021916908360018111156106905761068f611403565b5b021790555060007f000000000000000000000000000000000000000000000000000000000000000073ffffffffffffffffffffffffffffffffffffffff16635d3b1d307f00000000000000000000000000000000000000000000000000000000000000007f000000000000000000000000000000000000000000000000000000000000000060037f000000000000000000000000000000000000000000000000000000000000000060016040518663ffffffff1660e01b815260040161075a9594939291906110aa565b602060405180830381600087803b15801561077457600080fd5b505af1158015610788573d6000803e3d6000fd5b505050506040513d601f19601f820116820180604052508101906107ac9190610ea1565b9050807fcd6e45c8998311cab7e9d4385596cac867e20a0587194b954fa3a731c93ce78b60405160405180910390a250505050565b6000600160009054906101000a900473ffffffffffffffffffffffffffffffffffffffff16905090565b6000600163ffffffff16905090565b6000600361ffff16905090565b6000606060008060018111156108405761083f611403565b5b600160149054906101000a900460ff16600181111561086257610861611403565b5b14905060008060008054905011905060007f0000000000000000000000000000000000000000000000000000000000000000600254426108a29190611233565b119050600080471190508380156108b65750815b80156108bf5750805b80156108c85750825b9550505050509250929050565b60007f0000000000000000000000000000000000000000000000000000000000000000905090565b600080828154811061091257610911611432565b5b9060005260206000200160009054906101000a900473ffffffffffffffffffffffffffffffffffffffff169050919050565b60008080549050905090565b600080805490508260008151811061096b5761096a611432565b5b602002602001015161097d9190611374565b9050600080828154811061099457610993611432565b5b9060005260206000200160009054906101000a900473ffffffffffffffffffffffffffffffffffffffff16905080600160006101000a81548173ffffffffffffffffffffffffffffffffffffffff021916908373ffffffffffffffffffffffffffffffffffffffff1602179055506000600160146101000a81548160ff02191690836001811115610a2857610a27611403565b5b0217905550600067ffffffffffffffff811115610a4857610a47611461565b5b604051908082528060200260200182016040528015610a765781602001602082028036833780820191505090505b5060009080519060200190610a8c929190610b81565b504260028190555060008173ffffffffffffffffffffffffffffffffffffffff1647604051610aba90611021565b60006040518083038185875af1925050503d8060008114610af7576040519150601f19603f3d011682016040523d82523d6000602084013e610afc565b606091505b5050905080610b37576040517fa1d04b3900000000000000000000000000000000000000000000000000000000815260040160405180910390fd5b8173ffffffffffffffffffffffffffffffffffffffff167f5b690ec4a06fe979403046eaeea5b3ce38524683c3001f662c8b5a829632f7df60405160405180910390a25050505050565b828054828255906000526020600020908101928215610bfa579160200282015b82811115610bf95782518260006101000a81548173ffffffffffffffffffffffffffffffffffffffff021916908373ffffffffffffffffffffffffffffffffffffffff16021790555091602001919060010190610ba1565b5b509050610c079190610c0b565b5090565b5b80821115610c24576000816000905550600101610c0c565b5090565b6000610c3b610c36846111af565b61118a565b90508083825260208201905082856020860282011115610c5e57610c5d61149a565b5b60005b85811015610c8e5781610c748882610da1565b845260208401935060208301925050600181019050610c61565b5050509392505050565b6000610cab610ca6846111db565b61118a565b905082815260208101848484011115610cc757610cc661149f565b5b610cd2848285611310565b509392505050565b600082601f830112610cef57610cee611495565b5b8135610cff848260208601610c28565b91505092915050565b600081519050610d17816114d6565b92915050565b60008083601f840112610d3357610d32611495565b5b8235905067ffffffffffffffff811115610d5057610d4f611490565b5b602083019150836001820283011115610d6c57610d6b61149a565b5b9250929050565b600082601f830112610d8857610d87611495565b5b8151610d98848260208601610c98565b91505092915050565b600081359050610db0816114ed565b92915050565b600081519050610dc5816114ed565b92915050565b60008060408385031215610de257610de16114a9565b5b6000610df085828601610d08565b925050602083015167ffffffffffffffff811115610e1157610e106114a4565b5b610e1d85828601610d73565b9150509250929050565b60008060208385031215610e3e57610e3d6114a9565b5b600083013567ffffffffffffffff811115610e5c57610e5b6114a4565b5b610e6885828601610d1d565b92509250509250929050565b600060208284031215610e8a57610e896114a9565b5b6000610e9884828501610da1565b91505092915050565b600060208284031215610eb757610eb66114a9565b5b6000610ec584828501610db6565b91505092915050565b60008060408385031215610ee557610ee46114a9565b5b6000610ef385828601610da1565b925050602083013567ffffffffffffffff811115610f1457610f136114a4565b5b610f2085828601610cda565b9150509250929050565b610f3381611267565b82525050565b610f4281611279565b82525050565b610f5181611285565b82525050565b6000610f628261120c565b610f6c8185611217565b9350610f7c818560208601611310565b610f85816114ae565b840191505092915050565b610f99816112fe565b82525050565b6000610fac600083611217565b9150610fb7826114bf565b600082019050919050565b6000610fcf600083611228565b9150610fda826114bf565b600082019050919050565b610fee816112a2565b82525050565b610ffd816112d0565b82525050565b61100c816112da565b82525050565b61101b816112ea565b82525050565b600061102c82610fc2565b9150819050919050565b600060208201905061104b6000830184610f2a565b92915050565b60006040820190506110666000830185610f2a565b6110736020830184610f2a565b9392505050565b600060408201905061108f6000830185610f39565b81810360208301526110a18184610f57565b90509392505050565b600060a0820190506110bf6000830188610f48565b6110cc6020830187611012565b6110d96040830186610fe5565b6110e66060830185611003565b6110f36080830184611003565b9695505050505050565b60006020820190506111126000830184610f90565b92915050565b6000602082019050818103600083015261113181610f9f565b9050919050565b600060208201905061114d6000830184610ff4565b92915050565b60006060820190506111686000830186610ff4565b6111756020830185610ff4565b6111826040830184610ff4565b949350505050565b60006111946111a5565b90506111a08282611343565b919050565b6000604051905090565b600067ffffffffffffffff8211156111ca576111c9611461565b5b602082029050602081019050919050565b600067ffffffffffffffff8211156111f6576111f5611461565b5b6111ff826114ae565b9050602081019050919050565b600081519050919050565b600082825260208201905092915050565b600081905092915050565b600061123e826112d0565b9150611249836112d0565b92508282101561125c5761125b6113a5565b5b828203905092915050565b6000611272826112b0565b9050919050565b60008115159050919050565b6000819050919050565b600081905061129d826114c2565b919050565b600061ffff82169050919050565b600073ffffffffffffffffffffffffffffffffffffffff82169050919050565b6000819050919050565b600063ffffffff82169050919050565b600067ffffffffffffffff82169050919050565b60006113098261128f565b9050919050565b60005b8381101561132e578082015181840152602081019050611313565b8381111561133d576000848401525b50505050565b61134c826114ae565b810181811067ffffffffffffffff8211171561136b5761136a611461565b5b80604052505050565b600061137f826112d0565b915061138a836112d0565b92508261139a576113996113d4565b5b828206905092915050565b7f4e487b7100000000000000000000000000000000000000000000000000000000600052601160045260246000fd5b7f4e487b7100000000000000000000000000000000000000000000000000000000600052601260045260246000fd5b7f4e487b7100000000000000000000000000000000000000000000000000000000600052602160045260246000fd5b7f4e487b7100000000000000000000000000000000000000000000000000000000600052603260045260246000fd5b7f4e487b7100000000000000000000000000000000000000000000000000000000600052604160045260246000fd5b600080fd5b600080fd5b600080fd5b600080fd5b600080fd5b600080fd5b6000601f19601f8301169050919050565b50565b600281106114d3576114d2611403565b5b50565b6114df81611279565b81146114ea57600080fd5b50565b6114f6816112d0565b811461150157600080fd5b5056fea26469706673582212203dff2e2cb56605331d92e42e43620fa204dc680d54825d4127176361100e44d864736f6c63430008070033",
  "devdoc": {
    "author": "Gabriel Antony Xaviour",
    "details": "This implements the Chainlink VRF Version 2",
    "kind": "dev",
    "methods": {
      "checkUpkeep(bytes)": {
        "details": "This is the function that the Chainlink Keeper nodes call they look for the upKeepNeed to return true The following should be true in order to return true: 1. Our time interval should have passed 2. The lottery should have atleast 1 player 3. Our subscription is funded with LINK 4. The lottery should be in \"Open\" State"
      }
    },
    "title": "A sample Raffle Contract",
    "version": 1
  },
  "userdoc": {
    "kind": "user",
    "methods": {},
    "notice": "This contract is for creating a sample raffle contract",
    "version": 1
  },
  "storageLayout": {
    "storage": [
      {
        "astId": 197,
        "contract": "contracts/Raffle.sol:Raffle",
        "label": "s_players",
        "offset": 0,
        "slot": "0",
        "type": "t_array(t_address_payable)dyn_storage"
      },
      {
        "astId": 199,
        "contract": "contracts/Raffle.sol:Raffle",
        "label": "s_recentWinner",
        "offset": 0,
        "slot": "1",
        "type": "t_address"
      },
      {
        "astId": 202,
        "contract": "contracts/Raffle.sol:Raffle",
        "label": "s_raffleState",
        "offset": 20,
        "slot": "1",
        "type": "t_enum(RaffleState)192"
      },
      {
        "astId": 204,
        "contract": "contracts/Raffle.sol:Raffle",
        "label": "s_lastTimeStamp",
        "offset": 0,
        "slot": "2",
        "type": "t_uint256"
      }
    ],
    "types": {
      "t_address": {
        "encoding": "inplace",
        "label": "address",
        "numberOfBytes": "20"
      },
      "t_address_payable": {
        "encoding": "inplace",
        "label": "address payable",
        "numberOfBytes": "20"
      },
      "t_array(t_address_payable)dyn_storage": {
        "base": "t_address_payable",
        "encoding": "dynamic_array",
        "label": "address payable[]",
        "numberOfBytes": "32"
      },
      "t_enum(RaffleState)192": {
        "encoding": "inplace",
        "label": "enum Raffle.RaffleState",
        "numberOfBytes": "1"
      },
      "t_uint256": {
        "encoding": "inplace",
        "label": "uint256",
        "numberOfBytes": "32"
      }
    }
  }
}